[{
    "hex" : "010000009f3e1b6401d9a636dca4fc62784a165ac1cd2a1f1ea81401eb000d92a2b05d3314561191350000000049483045022100907eaeb015d5e774147d514077b65447df7f1b29c720006e7659d4c89678b8b802207f16a47899f106fe3407d5106c49d74fca6243ad46e8d557c1a623abfff86de201ffffffff0268a95700000000001976a91440f163a4d0a8bc44b4ba00b954c2bdbefb877cf488ac58a55a02000000001976a914cbdeea70da377cdc0f0ff28b80a90c935e282ec188ac00000000",
    "txid" : "6597c3fcba12db091d7104e29665eb2a1d740261c93e39a60d0487e7bc42b716",
    "version" : 1,
    "time" : 1679507103,
    "locktime" : 0,
    "IsBurnTx" : true,
    "vin" : [
        {
            "txid" : "3591115614335db0a2920d00eb0114a81e1f2acdc15a164a7862fca4dc36a6d9",
            "vout" : 0,
            "scriptSig" : {
                "asm" : "3045022100907eaeb015d5e774147d514077b65447df7f1b29c720006e7659d4c89678b8b802207f16a47899f106fe3407d5106c49d74fca6243ad46e8d557c1a623abfff86de201",
                "hex" : "483045022100907eaeb015d5e774147d514077b65447df7f1b29c720006e7659d4c89678b8b802207f16a47899f106fe3407d5106c49d74fca6243ad46e8d557c1a623abfff86de201"
            },
            "sequence" : 4294967295
        }
    ],
    "vout" : [
        {
            "value" : 5.74500000,
            "n" : 0,
            "scriptPubKey" : {
                "asm" : "OP_DUP OP_HASH160 40f163a4d0a8bc44b4ba00b954c2bdbefb877cf4 OP_EQUALVERIFY OP_CHECKSIG",
                "hex" : "76a91440f163a4d0a8bc44b4ba00b954c2bdbefb877cf488ac",
                "reqSigs" : 1,
                "type" : "pubkeyhash",
                "addresses" : [
                    "mmSLiMCoinTestnetBurnAddress1XU5fu"
                ]
            }
        },
        {
            "value" : 39.49500000,
            "n" : 1,
            "scriptPubKey" : {
                "asm" : "OP_DUP OP_HASH160 cbdeea70da377cdc0f0ff28b80a90c935e282ec1 OP_EQUALVERIFY OP_CHECKSIG",
                "hex" : "76a914cbdeea70da377cdc0f0ff28b80a90c935e282ec188ac",
                "reqSigs" : 1,
                "type" : "pubkeyhash",
                "addresses" : [
                    "mz6vWTPgGS6BRse27jxgpdN3VwiNcLP4r3"
                ]
            }
        }
    ],
    "blockhash" : "00003648486769b65df222c2d2fbed1b65898609cada345cbf000bd0f0f78344",
    "confirmations" : 9590,
    "burnt coins" : 5745000,
    "effective burnt coins left" : 5654447,
    "time" : 1679507172,
    "blocktime" : 1679507172
},
{
    "hex" : "01000000b7cf4264027ed11031d08abd959d2c7d457b723d82bba34d4dddc1df6f31313f93c8d4974301000000494830450221008e06c59a3ea9d2dc097a7bc26e535be947fae5441aa5bb4db582653e5b99e2ea0220341c7080baf231130e39caa80fb7139194690c0e54920e02d7a804d379a4e29f01ffffffff7ed11031d08abd959d2c7d457b723d82bba34d4dddc1df6f31313f93c8d497430200000048473044022010b26773ad596da8f5ec30669a0f9ac1f94d8f784e17875eaa5b386d5060a53102206ec9d433bda69d984049d453c29e0d83076c2e8375584cce18218985378b5b1201ffffffff02000e2707000000001976a91440f163a4d0a8bc44b4ba00b954c2bdbefb877cf488acdb425b00000000001976a914742c88d54ae47b9f75a6f684b9ba6cdc13cfcf0b88ac00000000",
    "txid" : "3016e6fea3bf9288b61ebbc378530f73351df8be470f37ffa754187d70e9a6e9",
    "version" : 1,
    "time" : 1682100151,
    "locktime" : 0,
    "IsBurnTx" : true,
    "vin" : [
        {
            "txid" : "4397d4c8933f31316fdfc1dd4d4da3bb823d727b457d2c9d95bd8ad03110d17e",
            "vout" : 1,
            "scriptSig" : {
                "asm" : "30450221008e06c59a3ea9d2dc097a7bc26e535be947fae5441aa5bb4db582653e5b99e2ea0220341c7080baf231130e39caa80fb7139194690c0e54920e02d7a804d379a4e29f01",
                "hex" : "4830450221008e06c59a3ea9d2dc097a7bc26e535be947fae5441aa5bb4db582653e5b99e2ea0220341c7080baf231130e39caa80fb7139194690c0e54920e02d7a804d379a4e29f01"
            },
            "sequence" : 4294967295
        },
        {
            "txid" : "4397d4c8933f31316fdfc1dd4d4da3bb823d727b457d2c9d95bd8ad03110d17e",
            "vout" : 2,
            "scriptSig" : {
                "asm" : "3044022010b26773ad596da8f5ec30669a0f9ac1f94d8f784e17875eaa5b386d5060a53102206ec9d433bda69d984049d453c29e0d83076c2e8375584cce18218985378b5b1201",
                "hex" : "473044022010b26773ad596da8f5ec30669a0f9ac1f94d8f784e17875eaa5b386d5060a53102206ec9d433bda69d984049d453c29e0d83076c2e8375584cce18218985378b5b1201"
            },
            "sequence" : 4294967295
        }
    ],
    "vout" : [
        {
            "value" : 120.00000000,
            "n" : 0,
            "scriptPubKey" : {
                "asm" : "OP_DUP OP_HASH160 40f163a4d0a8bc44b4ba00b954c2bdbefb877cf4 OP_EQUALVERIFY OP_CHECKSIG",
                "hex" : "76a91440f163a4d0a8bc44b4ba00b954c2bdbefb877cf488ac",
                "reqSigs" : 1,
                "type" : "pubkeyhash",
                "addresses" : [
                    "mmSLiMCoinTestnetBurnAddress1XU5fu"
                ]
            }
        },
        {
            "value" : 5.98089100,
            "n" : 1,
            "scriptPubKey" : {
                "asm" : "OP_DUP OP_HASH160 742c88d54ae47b9f75a6f684b9ba6cdc13cfcf0b OP_EQUALVERIFY OP_CHECKSIG",
                "hex" : "76a914742c88d54ae47b9f75a6f684b9ba6cdc13cfcf0b88ac",
                "reqSigs" : 1,
                "type" : "pubkeyhash",
                "addresses" : [
                    "mr7E2co83w7Cz7LmDwWxikZyMHSWuAJDrh"
                ]
            }
        }
    ],
    "blockhash" : "0000bca5ab2f35deda8bca8e317a285933abb3d34c709749f0e3f46ea4860bee",
    "confirmations" : 8778,
    "burnt coins" : 120000000,
    "effective burnt coins left" : 118183889,
    "time" : 1682100214,
    "blocktime" : 1682100214
},
{
    "hex" : "01000000e7f8426404be391dd26d74c369ddc5b91d5bd7cdeaaea3a433d895780adea93805d65ac266020000006a47304402204052aeee6588c8ec0be819910248ea0c1eab86ba922306ed968751d8cd841cb002204433cd2dccf13890b1c663cefeb35b71fcb367b9bffc5f180f6b22154c578dd20121039a7d6fe9751c5264a596357b48faba395123d996374aba17a92f86e5584779b5ffffffff04209b07fe9f681ce5827616796b3122f67a8fb4aa944ea9dbaee6ab399de12e010000004847304402202ca7549596d0a91da34d9daaaf9a5f0f123ea011765796fe068cc156a75c44de0220752469ce551dd4c82b61ed453ca6cefe6056b0589ea06deae88ed9fa581a8f2e01ffffffff04209b07fe9f681ce5827616796b3122f67a8fb4aa944ea9dbaee6ab399de12e0200000049483045022100bf46b91af45e3b2175beaeabeb606850d8ba40079ba82588a3985a2540b1d96e0220731d21346342ac2a3c059cd325d45909d4aa253aef8d3d97bfbf0ab9f8faca7701ffffffff23f28a524bea00b3f67afcee72248a0f3ddc35cc339141737caa48f9ac7c13540100000048473044022040ab005ceb4edd9620445659a6e6bede19cc7e7b877d37acdc54530ea10a1dbf022076c67fe2cf012e84076773c7acd86563208ad3e45c83080a35db8a3788fdc0df01ffffffff0200b4c404000000001976a91440f163a4d0a8bc44b4ba00b954c2bdbefb877cf488acb171bc02000000001976a9143113f002fe30f87f700ec52d85c1c8b578d4d92188ac00000000",
    "txid" : "dcdcb78879fcdfd675c9df8ec839b45c27462adabebf027bbe3807a5f16b80a8",
    "version" : 1,
    "time" : 1682110695,
    "locktime" : 0,
    "IsBurnTx" : true,
    "vin" : [
        {
            "txid" : "66c25ad60538a9de0a7895d833a4a3aeeacdd75b1db9c5dd69c3746dd21d39be",
            "vout" : 2,
            "scriptSig" : {
                "asm" : "304402204052aeee6588c8ec0be819910248ea0c1eab86ba922306ed968751d8cd841cb002204433cd2dccf13890b1c663cefeb35b71fcb367b9bffc5f180f6b22154c578dd201 039a7d6fe9751c5264a596357b48faba395123d996374aba17a92f86e5584779b5",
                "hex" : "47304402204052aeee6588c8ec0be819910248ea0c1eab86ba922306ed968751d8cd841cb002204433cd2dccf13890b1c663cefeb35b71fcb367b9bffc5f180f6b22154c578dd20121039a7d6fe9751c5264a596357b48faba395123d996374aba17a92f86e5584779b5"
            },
            "sequence" : 4294967295
        },
        {
            "txid" : "2ee19d39abe6aedba94e94aab48f7af622316b79167682e51c689ffe079b2004",
            "vout" : 1,
            "scriptSig" : {
                "asm" : "304402202ca7549596d0a91da34d9daaaf9a5f0f123ea011765796fe068cc156a75c44de0220752469ce551dd4c82b61ed453ca6cefe6056b0589ea06deae88ed9fa581a8f2e01",
                "hex" : "47304402202ca7549596d0a91da34d9daaaf9a5f0f123ea011765796fe068cc156a75c44de0220752469ce551dd4c82b61ed453ca6cefe6056b0589ea06deae88ed9fa581a8f2e01"
            },
            "sequence" : 4294967295
        },
        {
            "txid" : "2ee19d39abe6aedba94e94aab48f7af622316b79167682e51c689ffe079b2004",
            "vout" : 2,
            "scriptSig" : {
                "asm" : "3045022100bf46b91af45e3b2175beaeabeb606850d8ba40079ba82588a3985a2540b1d96e0220731d21346342ac2a3c059cd325d45909d4aa253aef8d3d97bfbf0ab9f8faca7701",
                "hex" : "483045022100bf46b91af45e3b2175beaeabeb606850d8ba40079ba82588a3985a2540b1d96e0220731d21346342ac2a3c059cd325d45909d4aa253aef8d3d97bfbf0ab9f8faca7701"
            },
            "sequence" : 4294967295
        },
        {
            "txid" : "54137cacf948aa7c73419133cc35dc3d0f8a2472eefc7af6b300ea4b528af223",
            "vout" : 1,
            "scriptSig" : {
                "asm" : "3044022040ab005ceb4edd9620445659a6e6bede19cc7e7b877d37acdc54530ea10a1dbf022076c67fe2cf012e84076773c7acd86563208ad3e45c83080a35db8a3788fdc0df01",
                "hex" : "473044022040ab005ceb4edd9620445659a6e6bede19cc7e7b877d37acdc54530ea10a1dbf022076c67fe2cf012e84076773c7acd86563208ad3e45c83080a35db8a3788fdc0df01"
            },
            "sequence" : 4294967295
        }
    ],
    "vout" : [
        {
            "value" : 80.00000000,
            "n" : 0,
            "scriptPubKey" : {
                "asm" : "OP_DUP OP_HASH160 40f163a4d0a8bc44b4ba00b954c2bdbefb877cf4 OP_EQUALVERIFY OP_CHECKSIG",
                "hex" : "76a91440f163a4d0a8bc44b4ba00b954c2bdbefb877cf488ac",
                "reqSigs" : 1,
                "type" : "pubkeyhash",
                "addresses" : [
                    "mmSLiMCoinTestnetBurnAddress1XU5fu"
                ]
            }
        },
        {
            "value" : 45.90430500,
            "n" : 1,
            "scriptPubKey" : {
                "asm" : "OP_DUP OP_HASH160 3113f002fe30f87f700ec52d85c1c8b578d4d921 OP_EQUALVERIFY OP_CHECKSIG",
                "hex" : "76a9143113f002fe30f87f700ec52d85c1c8b578d4d92188ac",
                "reqSigs" : 1,
                "type" : "pubkeyhash",
                "addresses" : [
                    "mjzTHjo96ysue8bcjG3BRaJj142PbHj2Gw"
                ]
            }
        }
    ],
    "blockhash" : "0000d4feb2f9270bd623273f8c5539b543506cf0a6dae6e5618a06197f97f4f7",
    "confirmations" : 8769,
    "burnt coins" : 80000000,
    "effective burnt coins left" : 78790507,
    "time" : 1682110755,
    "blocktime" : 1682110755
},
{
    "hex" : "010000009a8e0962010000000000000000000000000000000000000000000000000000000000000000ffffffff0e049a8e09620104062f503253482fffffffff01d075b20200000000232103ff260de133cdfaba69c3986abd4bc79c8206e66e4c57d8945b32b63b1e18cc47ac00000000",
    "txid" : "3591115614335db0a2920d00eb0114a81e1f2acdc15a164a7862fca4dc36a6d9",
    "version" : 1,
    "time" : 1644793498,
    "locktime" : 0,
    "IsBurnTx" : false,
    "vin" : [
        {
            "coinbase" : "049a8e09620104062f503253482f",
            "sequence" : 4294967295
        }
    ],
    "vout" : [
        {
            "value" : 45.25000000,
            "n" : 0,
            "scriptPubKey" : {
                "asm" : "03ff260de133cdfaba69c3986abd4bc79c8206e66e4c57d8945b32b63b1e18cc47 OP_CHECKSIG",
                "hex" : "2103ff260de133cdfaba69c3986abd4bc79c8206e66e4c57d8945b32b63b1e18cc47ac",
                "reqSigs" : 1,
                "type" : "pubkey",
                "addresses" : [
                    "mie75nFHrNAHHKfQ141fWfWozdMnaec8mb"
                ]
            }
        }
    ],
    "blockhash" : "000002738bdcf45897b0ae9423d1c29c1c3850feaf68e6866815f3569c49191b",
    "confirmations" : 137962,
    "time" : 1644793498,
    "blocktime" : 1644793498
},
{
    "hex" : "01000000d83b42640153f5c9c404bc103b3839d49ce1aceda5bec374f512b5268f792aa0c6b558560601000000484730440220527c6fe9691d94c912418200050147ac4bc3c55f385393ba14fb2896b6efa472022010b1b3da79657e7fbd62c09535aa2faf3120665596c453b2e855f8ebe7d00f3001ffffffff03000000000000000000b026c10300000000232103ff260de133cdfaba69c3986abd4bc79c8206e66e4c57d8945b32b63b1e18cc47ac3b51c10300000000232103ff260de133cdfaba69c3986abd4bc79c8206e66e4c57d8945b32b63b1e18cc47ac00000000",
    "txid" : "4397d4c8933f31316fdfc1dd4d4da3bb823d727b457d2c9d95bd8ad03110d17e",
    "version" : 1,
    "time" : 1682062296,
    "locktime" : 0,
    "IsBurnTx" : false,
    "vin" : [
        {
            "txid" : "065658b5c6a02a798f26b512f574c3bea5edace19cd439383b10bc04c4c9f553",
            "vout" : 1,
            "scriptSig" : {
                "asm" : "30440220527c6fe9691d94c912418200050147ac4bc3c55f385393ba14fb2896b6efa472022010b1b3da79657e7fbd62c09535aa2faf3120665596c453b2e855f8ebe7d00f3001",
                "hex" : "4730440220527c6fe9691d94c912418200050147ac4bc3c55f385393ba14fb2896b6efa472022010b1b3da79657e7fbd62c09535aa2faf3120665596c453b2e855f8ebe7d00f3001"
            },
            "sequence" : 4294967295
        }
    ],
    "vout" : [
        {
            "value" : 0.00000000,
            "n" : 0,
            "scriptPubKey" : {
                "asm" : "",
                "hex" : "",
                "type" : "nonstandard"
            }
        },
        {
            "value" : 62.99000000,
            "n" : 1,
            "scriptPubKey" : {
                "asm" : "03ff260de133cdfaba69c3986abd4bc79c8206e66e4c57d8945b32b63b1e18cc47 OP_CHECKSIG",
                "hex" : "2103ff260de133cdfaba69c3986abd4bc79c8206e66e4c57d8945b32b63b1e18cc47ac",
                "reqSigs" : 1,
                "type" : "pubkey",
                "addresses" : [
                    "mie75nFHrNAHHKfQ141fWfWozdMnaec8mb"
                ]
            }
        },
        {
            "value" : 63.00089100,
            "n" : 2,
            "scriptPubKey" : {
                "asm" : "03ff260de133cdfaba69c3986abd4bc79c8206e66e4c57d8945b32b63b1e18cc47 OP_CHECKSIG",
                "hex" : "2103ff260de133cdfaba69c3986abd4bc79c8206e66e4c57d8945b32b63b1e18cc47ac",
                "reqSigs" : 1,
                "type" : "pubkey",
                "addresses" : [
                    "mie75nFHrNAHHKfQ141fWfWozdMnaec8mb"
                ]
            }
        }
    ],
    "blockhash" : "6ba9ec461f47a3fc30fe165fb12c6792f5bb9fac35f7e26c1d72d4a46d94173b",
    "confirmations" : 8865,
    "time" : 1682062296,
    "blocktime" : 1682062296
},
{
    "hex" : "010000002c8f4064018aeb96f0a3d90f9dad8cf4b631a88ac9e25ec1b913543229294faba350f907c101000000484730440220388175dc3f6835e2f6c23d72ee59378f9888567e6e81b01a375e625770efe89d02202befc100c2fba57d16443e37cc3dfaaa3fa4d4805e8eef200fb9e10f8f4fcaa001ffffffff0310270000000000001976a9141e667ee94ea8e62c63fe59a0269bb3c091c86ca388ac1027000000000000416a3f08011210506f42546f6b656e4c696d6974656432180220012a25100240e8074a1440f163a4d0a8bc44b4ba00b954c2bdbefb877cf4500258e0c50860a08708f98eec02000000001976a914a848cbef8149aebd0e8d22f152f5b897009593b988ac00000000",
    "txid" : "66c25ad60538a9de0a7895d833a4a3aeeacdd75b1db9c5dd69c3746dd21d39be",
    "version" : 1,
    "time" : 1681952556,
    "locktime" : 0,
    "IsBurnTx" : false,
    "vin" : [
        {
            "txid" : "c107f950a3ab4f2929325413b9c15ee2c98aa831b6f48cad9d0fd9a3f096eb8a",
            "vout" : 1,
            "scriptSig" : {
                "asm" : "30440220388175dc3f6835e2f6c23d72ee59378f9888567e6e81b01a375e625770efe89d02202befc100c2fba57d16443e37cc3dfaaa3fa4d4805e8eef200fb9e10f8f4fcaa001",
                "hex" : "4730440220388175dc3f6835e2f6c23d72ee59378f9888567e6e81b01a375e625770efe89d02202befc100c2fba57d16443e37cc3dfaaa3fa4d4805e8eef200fb9e10f8f4fcaa001"
            },
            "sequence" : 4294967295
        }
    ],
    "vout" : [
        {
            "value" : 0.01000000,
            "n" : 0,
            "scriptPubKey" : {
                "asm" : "OP_DUP OP_HASH160 1e667ee94ea8e62c63fe59a0269bb3c091c86ca3 OP_EQUALVERIFY OP_CHECKSIG",
                "hex" : "76a9141e667ee94ea8e62c63fe59a0269bb3c091c86ca388ac",
                "reqSigs" : 1,
                "type" : "pubkeyhash",
                "addresses" : [
                    "miHhMLaMWubq4Wx6SdTEqZcUHEGp8RKMZt"
                ]
            }
        },
        {
            "value" : 0.01000000,
            "n" : 1,
            "scriptPubKey" : {
                "asm" : "OP_RETURN 08011210506f42546f6b656e4c696d6974656432180220012a25100240e8074a1440f163a4d0a8bc44b4ba00b954c2bdbefb877cf4500258e0c50860a08708",
                "hex" : "6a3f08011210506f42546f6b656e4c696d6974656432180220012a25100240e8074a1440f163a4d0a8bc44b4ba00b954c2bdbefb877cf4500258e0c50860a08708",
                "type" : "nulldata"
            }
        },
        {
            "value" : 49.05752900,
            "n" : 2,
            "scriptPubKey" : {
                "asm" : "OP_DUP OP_HASH160 a848cbef8149aebd0e8d22f152f5b897009593b9 OP_EQUALVERIFY OP_CHECKSIG",
                "hex" : "76a914a848cbef8149aebd0e8d22f152f5b897009593b988ac",
                "reqSigs" : 1,
                "type" : "pubkeyhash",
                "addresses" : [
                    "mvrm2HAoKqiCmeQiwKMuEFpeEn7rJEmpMz"
                ]
            }
        }
    ],
    "blockhash" : "000005b13c6a49d79c3417765bfa80c3f45eeabeb6a7ad29917d949f95236c30",
    "confirmations" : 8888,
    "time" : 1681952800,
    "blocktime" : 1681952800
},
{
    "_comment" : "## this is a completely fabricated transaction in block 50, with corresponding block time ##.",
    "hex" : "01000000b7cf4264027ed11031d08abd959d2c7d457b723d82bba34d4dddc1df6f31313f93c8d4974301000000494830450221008e06c59a3ea9d2dc097a7bc26e535be947fae5441aa5bb4db582653e5b99e2ea0220341c7080baf231130e39caa80fb7139194690c0e54920e02d7a804d379a4e29f01ffffffff7ed11031d08abd959d2c7d457b723d82bba34d4dddc1df6f31313f93c8d497430200000048473044022010b26773ad596da8f5ec30669a0f9ac1f94d8f784e17875eaa5b386d5060a53102206ec9d433bda69d984049d453c29e0d83076c2e8375584cce18218985378b5b1201ffffffff02000e2707000000001976a91440f163a4d0a8bc44b4ba00b954c2bdbefb877cf488acdb425b00000000001976a914742c88d54ae47b9f75a6f684b9ba6cdc13cfcf0b88ac00000000",
    "txid" : "fab000fea3bf9288b61ebbc378530f73351df8be470f37ffa754187d70e9a6e8",
    "vin" : [
        {
            "txid" : "4397d4c8933f31316fdfc1dd4d4da3bb823d727b457d2c9d95bd8ad03110d17e",
            "vout" : 1,
            "scriptSig" : {
                "asm" : "30450221008e06c59a3ea9d2dc097a7bc26e535be947fae5441aa5bb4db582653e5b99e2ea0220341c7080baf231130e39caa80fb7139194690c0e54920e02d7a804d379a4e29f01",
                "hex" : "4830450221008e06c59a3ea9d2dc097a7bc26e535be947fae5441aa5bb4db582653e5b99e2ea0220341c7080baf231130e39caa80fb7139194690c0e54920e02d7a804d379a4e29f01"
            },
            "sequence" : 4294967295
        },
        {
            "txid" : "4397d4c8933f31316fdfc1dd4d4da3bb823d727b457d2c9d95bd8ad03110d17e",
            "vout" : 2,
            "scriptSig" : {
                "asm" : "3044022010b26773ad596da8f5ec30669a0f9ac1f94d8f784e17875eaa5b386d5060a53102206ec9d433bda69d984049d453c29e0d83076c2e8375584cce18218985378b5b1201",
                "hex" : "473044022010b26773ad596da8f5ec30669a0f9ac1f94d8f784e17875eaa5b386d5060a53102206ec9d433bda69d984049d453c29e0d83076c2e8375584cce18218985378b5b1201"
            },
            "sequence" : 4294967295
        }
    ],
    "vout" : [
        {
            "value" : 120.00000000,
            "n" : 0,
            "scriptPubKey" : {
                "asm" : "OP_DUP OP_HASH160 40f163a4d0a8bc44b4ba00b954c2bdbefb877cf4 OP_EQUALVERIFY OP_CHECKSIG",
                "hex" : "76a91440f163a4d0a8bc44b4ba00b954c2bdbefb877cf488ac",
                "reqSigs" : 1,
                "type" : "pubkeyhash",
                "addresses" : [
                    "mmSLiMCoinTestnetBurnAddress1XU5fu"
                ]
            }
        },
        {
            "value" : 5.98089100,
            "n" : 1,
            "scriptPubKey" : {
                "asm" : "OP_DUP OP_HASH160 742c88d54ae47b9f75a6f684b9ba6cdc13cfcf0b OP_EQUALVERIFY OP_CHECKSIG",
                "hex" : "76a914742c88d54ae47b9f75a6f684b9ba6cdc13cfcf0b88ac",
                "reqSigs" : 1,
                "type" : "pubkeyhash",
                "addresses" : [
                    "mr7E2co83w7Cz7LmDwWxikZyMHSWuAJDrh"
                ]
            }
        }
    ],
    "blockhash" : "000000bc97783912780624dcce85efce226f286f45b7ccc379be08928ac4709e",
    "time" : 1562347616,
    "blocktime" : 1562347616
}
]

