[{
    "hex" : "01000000411f716401b44ba024faff59fcb6ecee704dbe482c78433c150679a5feb4ab99b045da1935030000006a4730440220439f139bd48735a9ac74637635f182d0ec89bb8f06418d347b49bd1aab30875f02203b5604bb5a6fb1040997009dc0c9a959fc94586b1066afa9faf7d3e834dab992012103e577849684c5c8c2e4a2d52031fd8de66fa709147b9718395eb785c9c9be5e04ffffffff0410270000000000001976a9140f344f81193065343c847e9c90012e8c6d1dbfe188ac1027000000000000286a26080110031a2025a497d15b39dbd93c39612de3330aba18e18afad1fbc14f3e0e0c7df167702b40ac2700000000001976a914657c1793fe2bbfea6a2572bd5a00dc4a1ef007b088ac20120a00000000001976a91481f38ebe36416ffaa438fc2db6a6e1402a6550c288ac00000000",
    "txid" : "3971fc8580a84beb62a8a868aa3871e2f7682ef2cbb23d0419c7fae7e73dfdbf",
    "version" : 1,
    "time" : 1685135169,
    "locktime" : 0,
    "IsBurnTx" : false,
    "vin" : [
        {
            "txid" : "3519da45b099abb4fea57906153c43782c48be4d70eeecb6fc59fffa24a04bb4",
            "vout" : 3,
            "scriptSig" : {
                "asm" : "30440220439f139bd48735a9ac74637635f182d0ec89bb8f06418d347b49bd1aab30875f02203b5604bb5a6fb1040997009dc0c9a959fc94586b1066afa9faf7d3e834dab99201 03e577849684c5c8c2e4a2d52031fd8de66fa709147b9718395eb785c9c9be5e04",
                "hex" : "4730440220439f139bd48735a9ac74637635f182d0ec89bb8f06418d347b49bd1aab30875f02203b5604bb5a6fb1040997009dc0c9a959fc94586b1066afa9faf7d3e834dab992012103e577849684c5c8c2e4a2d52031fd8de66fa709147b9718395eb785c9c9be5e04"
            },
            "sequence" : 4294967295
        }
    ],
    "vout" : [
        {
            "value" : 0.01000000,
            "n" : 0,
            "scriptPubKey" : {
                "asm" : "OP_DUP OP_HASH160 0f344f81193065343c847e9c90012e8c6d1dbfe1 OP_EQUALVERIFY OP_CHECKSIG",
                "hex" : "76a9140f344f81193065343c847e9c90012e8c6d1dbfe188ac",
                "reqSigs" : 1,
                "type" : "pubkeyhash",
                "addresses" : [
                    "mguM6Xso6UEVT8uPYGnFMw9aPBZ2vtRKoH"
                ]
            }
        },
        {
            "value" : 0.01000000,
            "n" : 1,
            "scriptPubKey" : {
                "asm" : "OP_RETURN 080110031a2025a497d15b39dbd93c39612de3330aba18e18afad1fbc14f3e0e0c7df167702b",
                "hex" : "6a26080110031a2025a497d15b39dbd93c39612de3330aba18e18afad1fbc14f3e0e0c7df167702b",
                "type" : "nulldata"
            }
        },
        {
            "value" : 2.60000000,
            "n" : 2,
            "scriptPubKey" : {
                "asm" : "OP_DUP OP_HASH160 657c1793fe2bbfea6a2572bd5a00dc4a1ef007b0 OP_EQUALVERIFY OP_CHECKSIG",
                "hex" : "76a914657c1793fe2bbfea6a2572bd5a00dc4a1ef007b088ac",
                "reqSigs" : 1,
                "type" : "pubkeyhash",
                "addresses" : [
                    "mpmZCVusQ6WoWHcFTAizmEcqSXdu5YX5PV"
                ]
            }
        },
        {
            "value" : 0.66000000,
            "n" : 3,
            "scriptPubKey" : {
                "asm" : "OP_DUP OP_HASH160 81f38ebe36416ffaa438fc2db6a6e1402a6550c2 OP_EQUALVERIFY OP_CHECKSIG",
                "hex" : "76a91481f38ebe36416ffaa438fc2db6a6e1402a6550c288ac",
                "reqSigs" : 1,
                "type" : "pubkeyhash",
                "addresses" : [
                    "msN5EUgocdFaAie9PsqKh8bJJ79shRnL91"
                ]
            }
        }
    ],
    "blockhash" : "000000ad56a3d68a784e60051d3c69f56936d1ce54ce14e827fa05f113e80063",
    "confirmations" : 755,
    "time" : 1685135235,
    "blocktime" : 1685135235
},
{
    "hex" : "010000001222716401bffd3de7e7fac719043db2cbf22e68f7e27138aa68a8a862eb4ba88085fc7139020000006a4730440220429b3eeda7320bfb6b5648595219901eeb465379ba41d3105e0f4273d66f29e10220686849b0082ebeea86bca31860794304aacb50527638e67f027fd22b4dd5829f012102ce711efa41206879b71e9c930d24565260ebc227829b2406d711e41c2a777daeffffffff0410270000000000001976a914bc2b3ffee56058860b29831a3ea39b92f2be19e788ac1027000000000000446a42080110041a2025a497d15b39dbd93c39612de3330aba18e18afad1fbc14f3e0e0c7df167702b3890ca084214657c1793fe2bbfea6a2572bd5a00dc4a1ef007b048025d7f1f000000000017a9143dd97aa1765629dd0c971b78b335e17b7ab021df87b3b70700000000001976a914657c1793fe2bbfea6a2572bd5a00dc4a1ef007b088ac00000000",
    "txid" : "6bf4fa0f851364516a3dee4745c18128d775981f0013fbef58b9f3c123ed247e",
    "version" : 1,
    "time" : 1685135890,
    "locktime" : 0,
    "IsBurnTx" : false,
    "vin" : [
        {
            "txid" : "3971fc8580a84beb62a8a868aa3871e2f7682ef2cbb23d0419c7fae7e73dfdbf",
            "vout" : 2,
            "scriptSig" : {
                "asm" : "30440220429b3eeda7320bfb6b5648595219901eeb465379ba41d3105e0f4273d66f29e10220686849b0082ebeea86bca31860794304aacb50527638e67f027fd22b4dd5829f01 02ce711efa41206879b71e9c930d24565260ebc227829b2406d711e41c2a777dae",
                "hex" : "4730440220429b3eeda7320bfb6b5648595219901eeb465379ba41d3105e0f4273d66f29e10220686849b0082ebeea86bca31860794304aacb50527638e67f027fd22b4dd5829f012102ce711efa41206879b71e9c930d24565260ebc227829b2406d711e41c2a777dae"
            },
            "sequence" : 4294967295
        }
    ],
    "vout" : [
        {
            "value" : 0.01000000,
            "n" : 0,
            "scriptPubKey" : {
                "asm" : "OP_DUP OP_HASH160 bc2b3ffee56058860b29831a3ea39b92f2be19e7 OP_EQUALVERIFY OP_CHECKSIG",
                "hex" : "76a914bc2b3ffee56058860b29831a3ea39b92f2be19e788ac",
                "reqSigs" : 1,
                "type" : "pubkeyhash",
                "addresses" : [
                    "mxfu9BNbsaECVVBRiqzavcvp6xhB2cz9r8"
                ]
            }
        },
        {
            "value" : 0.01000000,
            "n" : 1,
            "scriptPubKey" : {
                "asm" : "OP_RETURN 080110041a2025a497d15b39dbd93c39612de3330aba18e18afad1fbc14f3e0e0c7df167702b3890ca084214657c1793fe2bbfea6a2572bd5a00dc4a1ef007b04802",
                "hex" : "6a42080110041a2025a497d15b39dbd93c39612de3330aba18e18afad1fbc14f3e0e0c7df167702b3890ca084214657c1793fe2bbfea6a2572bd5a00dc4a1ef007b04802",
                "type" : "nulldata"
            }
        },
        {
            "value" : 2.06422100,
            "n" : 2,
            "scriptPubKey" : {
                "asm" : "OP_HASH160 3dd97aa1765629dd0c971b78b335e17b7ab021df OP_EQUAL",
                "hex" : "a9143dd97aa1765629dd0c971b78b335e17b7ab021df87",
                "reqSigs" : 1,
                "type" : "scripthash",
                "addresses" : [
                    "2MxtFjhANdJhyUM62s4sPwYd6ztaKS9jcjC"
                ]
            }
        },
        {
            "value" : 0.50577900,
            "n" : 3,
            "scriptPubKey" : {
                "asm" : "OP_DUP OP_HASH160 657c1793fe2bbfea6a2572bd5a00dc4a1ef007b0 OP_EQUALVERIFY OP_CHECKSIG",
                "hex" : "76a914657c1793fe2bbfea6a2572bd5a00dc4a1ef007b088ac",
                "reqSigs" : 1,
                "type" : "pubkeyhash",
                "addresses" : [
                    "mpmZCVusQ6WoWHcFTAizmEcqSXdu5YX5PV"
                ]
            }
        }
    ],
    "blockhash" : "0000009fb34a671a069f8dbd00743af1ed8b1c2e450ac3c65f4f3ef1974804ba",
    "confirmations" : 743,
    "time" : 1685135954,
    "blocktime" : 1685135954
},
{
    "hex" : "01000000075a7164017e24ed23c1f3b958effb13001f9875d72881c14547ee3d6a516413850ffaf46b020000008a47304402202f27ed3bcb965a9acfdf3d268aa8fce1f35719e51cf75e677b05d6d65539c947022007c7bda293c4a92eb068c8378b56f35a089081ecbc4bef550aee45aa62a0e006012102ce711efa41206879b71e9c930d24565260ebc227829b2406d711e41c2a777dae1f03102502b17576a914657c1793fe2bbfea6a2572bd5a00dc4a1ef007b088acfeffffff0310270000000000001976a9144433cb9e3b53066136b151069ccb61f69802519e88ac1027000000000000286a26080110051a2025a497d15b39dbd93c39612de3330aba18e18afad1fbc14f3e0e0c7df167702b2d0a1f00000000001976a914a848cbef8149aebd0e8d22f152f5b897009593b988ac10250200",
    "txid" : "733ffad379ae731ce2c5ae65944d8ba2867a0e2727765170eab9ce60d51beaef",
    "version" : 1,
    "time" : 1685150215,
    "locktime" : 140560,
    "IsBurnTx" : false,
    "vin" : [
        {
            "txid" : "6bf4fa0f851364516a3dee4745c18128d775981f0013fbef58b9f3c123ed247e",
            "vout" : 2,
            "scriptSig" : {
                "asm" : "304402202f27ed3bcb965a9acfdf3d268aa8fce1f35719e51cf75e677b05d6d65539c947022007c7bda293c4a92eb068c8378b56f35a089081ecbc4bef550aee45aa62a0e00601 02ce711efa41206879b71e9c930d24565260ebc227829b2406d711e41c2a777dae 03102502b17576a914657c1793fe2bbfea6a2572bd5a00dc4a1ef007b088ac",
                "hex" : "47304402202f27ed3bcb965a9acfdf3d268aa8fce1f35719e51cf75e677b05d6d65539c947022007c7bda293c4a92eb068c8378b56f35a089081ecbc4bef550aee45aa62a0e006012102ce711efa41206879b71e9c930d24565260ebc227829b2406d711e41c2a777dae1f03102502b17576a914657c1793fe2bbfea6a2572bd5a00dc4a1ef007b088ac"
            },
            "sequence" : 4294967294
        }
    ],
    "vout" : [
        {
            "value" : 0.01000000,
            "n" : 0,
            "scriptPubKey" : {
                "asm" : "OP_DUP OP_HASH160 4433cb9e3b53066136b151069ccb61f69802519e OP_EQUALVERIFY OP_CHECKSIG",
                "hex" : "76a9144433cb9e3b53066136b151069ccb61f69802519e88ac",
                "reqSigs" : 1,
                "type" : "pubkeyhash",
                "addresses" : [
                    "mmjaHuS1kTRMFJaTJqYMjdmF18n36eXHfD"
                ]
            }
        },
        {
            "value" : 0.01000000,
            "n" : 1,
            "scriptPubKey" : {
                "asm" : "OP_RETURN 080110051a2025a497d15b39dbd93c39612de3330aba18e18afad1fbc14f3e0e0c7df167702b",
                "hex" : "6a26080110051a2025a497d15b39dbd93c39612de3330aba18e18afad1fbc14f3e0e0c7df167702b",
                "type" : "nulldata"
            }
        },
        {
            "value" : 2.03422100,
            "n" : 2,
            "scriptPubKey" : {
                "asm" : "OP_DUP OP_HASH160 a848cbef8149aebd0e8d22f152f5b897009593b9 OP_EQUALVERIFY OP_CHECKSIG",
                "hex" : "76a914a848cbef8149aebd0e8d22f152f5b897009593b988ac",
                "reqSigs" : 1,
                "type" : "pubkeyhash",
                "addresses" : [
                    "mvrm2HAoKqiCmeQiwKMuEFpeEn7rJEmpMz"
                ]
            }
        }
    ],
    "blockhash" : "000000351248868d5bec8e19198ab40f1ac37e18ead9b098538590e45367261d",
    "confirmations" : 531,
    "time" : 1685150328,
    "blocktime" : 1685150328
},
{
    "hex" : "010000005e197164012b16a013ce2c1a76aa4a9c2f4e69025e5eb2afc9599285daa5bd40a33986e188000000004847304402207a036dc90a08999eabb19941206d3ce63a554008a1ef578ed3538b6d0f091847022056916b574b64b85db499fff5a298128d3f618147e0c3e5e0364dc9dfecfe9a0401ffffffff0310270000000000001976a914930922294748a0e47772d62a580a1c3aa8d2cde688ac10270000000000002a6a28080110021a2025a497d15b39dbd93c39612de3330aba18e18afad1fbc14f3e0e0c7df167702b500130bf700e000000001976a9142242a011770d1f9383fcb93ba598707727d5e6dc88ac00000000",
    "txid" : "7b009aadd03ebbbca745fb6544e72522f87fc0530efd8690940092338fe6c10b",
    "version" : 1,
    "time" : 1685133662,
    "locktime" : 0,
    "IsBurnTx" : false,
    "vin" : [
        {
            "txid" : "88e18639a340bda5da859259c9afb25e5e02694e2f9c4aaa761a2cce13a0162b",
            "vout" : 0,
            "scriptSig" : {
                "asm" : "304402207a036dc90a08999eabb19941206d3ce63a554008a1ef578ed3538b6d0f091847022056916b574b64b85db499fff5a298128d3f618147e0c3e5e0364dc9dfecfe9a0401",
                "hex" : "47304402207a036dc90a08999eabb19941206d3ce63a554008a1ef578ed3538b6d0f091847022056916b574b64b85db499fff5a298128d3f618147e0c3e5e0364dc9dfecfe9a0401"
            },
            "sequence" : 4294967295
        }
    ],
    "vout" : [
        {
            "value" : 0.01000000,
            "n" : 0,
            "scriptPubKey" : {
                "asm" : "OP_DUP OP_HASH160 930922294748a0e47772d62a580a1c3aa8d2cde6 OP_EQUALVERIFY OP_CHECKSIG",
                "hex" : "76a914930922294748a0e47772d62a580a1c3aa8d2cde688ac",
                "reqSigs" : 1,
                "type" : "pubkeyhash",
                "addresses" : [
                    "mtvQZrb9BC8HFtXe87Ev5PEUeA1cSvP211"
                ]
            }
        },
        {
            "value" : 0.01000000,
            "n" : 1,
            "scriptPubKey" : {
                "asm" : "OP_RETURN 080110021a2025a497d15b39dbd93c39612de3330aba18e18afad1fbc14f3e0e0c7df167702b5001",
                "hex" : "6a28080110021a2025a497d15b39dbd93c39612de3330aba18e18afad1fbc14f3e0e0c7df167702b5001",
                "type" : "nulldata"
            }
        },
        {
            "value" : 242.27000000,
            "n" : 2,
            "scriptPubKey" : {
                "asm" : "OP_DUP OP_HASH160 2242a011770d1f9383fcb93ba598707727d5e6dc OP_EQUALVERIFY OP_CHECKSIG",
                "hex" : "76a9142242a011770d1f9383fcb93ba598707727d5e6dc88ac",
                "reqSigs" : 1,
                "type" : "pubkeyhash",
                "addresses" : [
                    "mie75nFHrNAHHKfQ141fWfWozdMnaec8mb"
                ]
            }
        }
    ],
    "blockhash" : "000001043e24673030419dc8072b1b2939edc500be0f8dce671248bddf60b6c4",
    "confirmations" : 787,
    "time" : 1685133715,
    "blocktime" : 1685133715
},
{
    "hex" : "01000000f20f716401d845ab8dbacd3d5eb8d2a58a6ccc9edf59836cf0fc43129897413a4a930739dc0000000049483045022100b67a39e2d096a6e89427ca8f4313d7218aa2bd972852bc6559c48a3dd10c0f880220326ae3a2bab94b09f93967d254e161bcc0950007d8fdbdcda8f257fe8e6e109001ffffffff0310270000000000001976a91470929fe629653c82bc5ef7ed655005fd09942ac188ac1027000000000000196a170801100120012880ade204320a75706461746520736c6da0ee6c0e000000001976a914a848cbef8149aebd0e8d22f152f5b897009593b988ac00000000",
    "txid" : "25a497d15b39dbd93c39612de3330aba18e18afad1fbc14f3e0e0c7df167702b",
    "version" : 1,
    "time" : 1685131250,
    "locktime" : 0,
    "IsBurnTx" : false,
    "vin" : [
        {
            "txid" : "dc3907934a3a4197981243fcf06c8359df9ecc6c8aa5d2b85e3dcdba8dab45d8",
            "vout" : 0,
            "scriptSig" : {
                "asm" : "3045022100b67a39e2d096a6e89427ca8f4313d7218aa2bd972852bc6559c48a3dd10c0f880220326ae3a2bab94b09f93967d254e161bcc0950007d8fdbdcda8f257fe8e6e109001",
                "hex" : "483045022100b67a39e2d096a6e89427ca8f4313d7218aa2bd972852bc6559c48a3dd10c0f880220326ae3a2bab94b09f93967d254e161bcc0950007d8fdbdcda8f257fe8e6e109001"
            },
            "sequence" : 4294967295
        }
    ],
    "vout" : [
        {
            "value" : 0.01000000,
            "n" : 0,
            "scriptPubKey" : {
                "asm" : "OP_DUP OP_HASH160 70929fe629653c82bc5ef7ed655005fd09942ac1 OP_EQUALVERIFY OP_CHECKSIG",
                "hex" : "76a91470929fe629653c82bc5ef7ed655005fd09942ac188ac",
                "reqSigs" : 1,
                "type" : "pubkeyhash",
                "addresses" : [
                    "mqnBdCH2cuoSiQWjKoEZHfov77bzrpmtNX"
                ]
            }
        },
        {
            "value" : 0.01000000,
            "n" : 1,
            "scriptPubKey" : {
                "asm" : "OP_RETURN 0801100120012880ade204320a75706461746520736c6d",
                "hex" : "6a170801100120012880ade204320a75706461746520736c6d",
                "type" : "nulldata"
            }
        },
        {
            "value" : 242.02000000,
            "n" : 2,
            "scriptPubKey" : {
                "asm" : "OP_DUP OP_HASH160 a848cbef8149aebd0e8d22f152f5b897009593b9 OP_EQUALVERIFY OP_CHECKSIG",
                "hex" : "76a914a848cbef8149aebd0e8d22f152f5b897009593b988ac",
                "reqSigs" : 1,
                "type" : "pubkeyhash",
                "addresses" : [
                    "mvrm2HAoKqiCmeQiwKMuEFpeEn7rJEmpMz"
                ]
            }
        }
    ],
    "blockhash" : "000001c48d58c4feda2d442311243ecd5f354ae5b259799e905e92c0a9d4946c",
    "confirmations" : 900,
    "time" : 1685131312,
    "blocktime" : 1685131312
}
]
